:020000040800F2
:100000000050002021020008270200082B020008EF
:100010009D020008A1020008E9020008000000009B
:100020000000000000000000000000003103000894
:10003000350300080000000039030008450E0008E1
:100040004D0300084D0300084D0300084D03000850
:100050004D0300084D030008650900084D03000822
:100060004D0300084D0300084D0300084D03000830
:100070004D0300084D0300084D0300084D03000820
:100080004D0300084D0300084D0300084D03000810
:100090004D0300084D0300084D0300084D03000800
:1000A0004D0300084D0300084D0300084D030008F0
:1000B0004D0300084D0300084D0300084D030008E0
:1000C0004D0300084D0300084D0300084D030008D0
:1000D0004D0300084D0300084D0300084D030008C0
:1000E0004D0300084D0300084D0300080000000008
:1000F0000000000000000000000000000000000000
:1001000000000000000000005FF808F100B583B0B7
:1001100000F0AAF9304B314A1360314A1360314B79
:10012000314A32498B4204D21168196004330432D7
:10013000F7E72A4B1A682E4B9A4200D0FEE7284B6D
:100140001A682C4B9A42F9D1234B2B4A13602B4A45
:1001500013602B4B02E000221A600433294A9342B9
:10016000F9D3254B1B6813B9244B1B6803B1FEE779
:1001700000F086F9694601A800F022F9224C234BD1
:10018000E41AA4100025AC4214DC214C214BE41AE3
:10019000A4100025AC4213DC0099019800F0B0FED9
:1001A00005461D4C1D4BE41AA410002C0EDC2846FD
:1001B00000F0E2F8154B53F8253098470135E2E797
:1001C000144B53F8253098470135E3E7013C134BB6
:1001D00053F824309847E8E7BABADECA0000002096
:1001E0009C0000200000002048AF0008A000002074
:1001F0007856341232547698A0000020AC010020CA
:10020000A0000020B0010020780300087803000857
:1002100078030008780300087803000878030008D2
:1002200008B5FFF773FF00BEFEE71EF0040F0CBF1A
:10023000EFF30880EFF309807146414A10472DE93A
:10024000F04182B004468846124B5E6B9F6B9D6AFC
:100250001B6B13F0020F03D00E4BDB6A002B0CDB81
:100260000D4800F0B5F8CDF800803B4632462946EF
:10027000204600F009F900BEFEE74BF6AB6100F046
:100280007DF90028ECD0034B4FF00042DA6202B057
:10029000BDE8F08100ED00E01019000800BEFEE7A7
:1002A0001EF0040F0CBFEFF30880EFF309807146D6
:1002B000244A10472DE9F04182B004468846084B95
:1002C0005E6B9F6B9D6A074800F082F8CDF8008056
:1002D0003B4632462946204600F0D6F800BEFEE7EF
:1002E00000ED00E0201900081EF0040F0CBFEFF332
:1002F0000880EFF309807146134A10472DE9F04159
:1003000082B004468846084B5E6B9F6B9D6A074827
:1003100000F05EF8CDF800803B4632462946204684
:1003200000F0B2F800BEFEE700ED00E02C19000876
:1003300000BEFEE700BEFEE700BEFEE7704700001D
:100340003F020008B5020008FD02000800BEFEE7FB
:1003500048AF000800000020A000002048AF0008BF
:100360000000000000000000A0000020B0010020FC
:08037000000000000000000085
:10037800FEE7000008B503460C4A12685AB10B4A5A
:100388001068033323F003030344094A934206D851
:10039800064A136008BD054A06491160EFE700F0F8
:1003A800F5FD0C2303604FF0FF30F3E7A4000020B5
:1003B800004C0020B001002001230360014B0B60BA
:1003C800704700BF040000200FB400B583B004AB31
:1003D80053F8042B01938021064800F009FE0028F9
:1003E80003DD0146034800F037F803B05DF804EB7D
:1003F80004B07047AC0000202DE9F04385B00446F6
:100408000F4643560BB10E461EE0042528462146EA
:10041800ABBE0446384605B0BDE8F08314F9011BAD
:1004280004AA1A4402F8101C0133AB42F6D304AAFA
:100438001344002203F8102C4FF00408E946404604
:100448004946ABBE8046761B002EE3D03546102EBB
:1004580028BF10250023E8E708B5FFF7CDFF08BD42
:1004680008B500F0FDF8024A024B9A6008BD00BFCB
:100478000000000800ED00E008B500F019F908BD1B
:10048800F8B504460D4617461E462748FFF79CFF59
:1004980021682648FFF798FF61682548FFF794FF11
:1004A800A1682448FFF790FFE1682348FFF78CFF15
:1004B80021692248FFF788FF61692148FFF784FF17
:1004C800A1692048FFF780FFE1691F48FFF77CFF1B
:1004D8001E48FFF779FF29461D48FFF775FF1D4C99
:1004E800E16A1D48FFF770FF216B1C48FFF76CFF9E
:1004F800E16B1B48FFF768FF15F0800F0AD115F470
:10050800004F0CD11748FFF75FFF06991648FFF711
:100518005BFFF8BD39461548FFF756FFEFE7314650
:100528001348FFF751FFEDE7F41700080418000817
:100538001418000824180008341800084418000883
:100548005418000864180008741800088418000873
:100558009018000800ED00E0A0180008B018000886
:10056800C0180008F0180008F8180008D01800088B
:10057800E018000883691A888A4201D00020704771
:100588000268033A012A03D80233836101207047C5
:100598000020704782B00023019300932C4A13680F
:1005A80043F4803313602A4B1B6803F40033009331
:1005B800019B01330193009B1BB9019BB3F5A06F0D
:1005C800F1D1234B1B6813F4003F06D0012300939D
:1005D800009B012B04D002B0704700230093F7E77B
:1005E8001C4B1A6842F010021A601A6822F00302C3
:1005F8001A601A6842F002021A60A3F580535A681A
:100608005A605A685A605A6842F480625A605A6856
:1006180022F47C125A605A6842F4E8125A601A6846
:1006280042F080721A600A4B1B6813F0007FFAD000
:10063800074B5A6822F003025A605A6842F00202D5
:100648005A60034B5B6803F00C03082BF9D1C2E72F
:10065800001002400020024008B5FFF79BFF08BDCC
:1006680008B5104B1A6842F001021A6059680E4A20
:100678000A405A601A6822F0847222F480321A60A2
:100688001A6822F480221A605A6822F4FE025A601C
:100698004FF41F029A60FFF7DFFF044B4FF0006230
:1006A8009A6008BD001002400000FFF800ED00E06D
:1006B8001F4B5B6803F00C03042B15D0082B17D0D5
:1006C8001BB11C4B1C4A1A6002E01A4B1A4A1A60EA
:1006D800174B5B68C3F30313184AD35CDAB21549A6
:1006E8000B68D3400B607047124B134A1A60EFE750
:1006F8000F4A53685268C3F38343023312F4803FAE
:100708000AD00B4A526812F4003F0BD00C4A02FB85
:1007180003F3084A1360DBE7094A02FB03F3054ABF
:100728001360D5E7044A02FB03F3024A1360CFE7DC
:10073800001002401C00002000127A000C0000206B
:1007480000093D00002302E000BF0133DBB2034A89
:100758001278D2B29A42F7D8704700BF2000002022
:1007680038B5002534E01D4B5C5D04F0010208211A
:10077800002000F0A9F8C4F340020921002000F08D
:10078800A3F8C4F380020A21002000F09DF8C4F306
:10079800C0020B21002000F097F8C4F300120C21CE
:1007A800002000F091F8C4F340120F21002000F05F
:1007B8008BF8C4F380120B21012000F085F8E209C0
:1007C8000C21012000F080F8FFF7BCFF0135ADB225
:1007D80049F2D6539D42C6D938BD00BF3C1900081E
:1007E80010B4012824D018B1022841D010BC704799
:1007F800072910D90F29F9D8A1F10804E4B2A400F7
:100808000F23A3402A48016821EA030302FA04F1EE
:1008180019430160EAE789000F2303FA01F0254C28
:10082800236823EA000302FA01F119432160DDE796
:10083800072910D90F29D9D8A1F10800C0B2800022
:100848000F2383401C4C216821EA030302FA00F1BC
:1008580019432160CAE789000F2303FA01F0174CF6
:10086800236823EA000302FA01F119432160BDE776
:10087800072910D90F29B9D8A1F10803DBB29B00C9
:100888000F2098400E4C216821EA000002FA03F17B
:1008980001432160AAE789000F2303FA01F0094CFC
:1008A800236823EA000302FA01F1194321609DE756
:1008B8000408014000080140040C0140000C0140FC
:1008C8000410014000100140012813D010B1022883
:1008D8001FD07047012A07D0002A2FD1012303FA1D
:1008E80001F1174B19607047012303FA01F1154B09
:1008F80019607047012A06D002BB012303FA01F1EF
:10090800114B19607047012303FA01F10F4B19606D
:100918007047012A09D062B9012303FA01F20C4891
:10092800036823EA0203036003E001238B40094ABA
:100938001360012303FA01F1074B1960704700BFE8
:100948001408014010080140140C0140100C01402B
:100958000C100140101001401410014008B5044B60
:100968001B689847034A536943F00103536108BD64
:100978002C01002000040140044B1A6842F00102D7
:100988001A60DA6842F00102DA6070470004014038
:10099800014B1860704700BF2C01002008B50E4BB2
:1009A8001B787BB100F08EFA0B4A1378013B80B2BA
:1009B8000A4921F8130013780133DBB2137000F0F1
:1009C80095FA08BD0649074800F066FA024A137806
:1009D8000133DBB21370F4E79401002030010020EA
:1009E800750A000840420F000023072B38D810B4BE
:1009F80019E01C4A32F8112092B240F21350824298
:100A08000DD8184A32F8112092B2B2F57A7F06D979
:100A18000122A24014490C7824EA02040C70013324
:100A2800DBB2072B1AD81C4603F111010D4A32F824
:100A3800112092B2B2F5166FDBD20A4A32F81120B1
:100A480092B240F634008242D3D9012202FA03F46A
:100A580005490A782243D2B20A70E0E710BC704711
:100A6800704700BF300100209501002008B5FFF74E
:100A7800BBFF104B00221A700F4B1B78DBB2182BF0
:100A880011D006D80C2B0BD0162B01D1FFF768FE1E
:100A980008BD452B0AD05E2BFAD100F073F9F7E7B1
:100AA80000F07EF8F4E700F079F9F1E700F012FAC7
:100AB800EEE700BF940100209501002008B501224F
:100AC80000211046FFF700FF012211461046FFF7EC
:100AD800FBFE012205211046FFF7F6FE0122062142
:100AE8001046FFF7F1FE012207211046FFF7ECFE42
:100AF800012208211046FFF7E7FE012209211046CE
:100B0800FFF7E2FE01220A211046FFF7DDFE08BDCD
:100B180010B5044600F001020F210120FFF7D4FEB2
:100B2800C4F3400201210020FFF7CEFEC4F3800287
:100B380002210020FFF7C8FEC4F3C00203210020F1
:100B4800FFF7C2FEC4F3001204210020FFF7BCFE29
:100B5800C4F3401205210020FFF7B6FEC4F380124B
:100B680006210020FFF7B0FEE20907210020FFF769
:100B7800ABFE10BD002109E000BF0133DBB2074A1C
:100B88001278D2B29A42F7D80131C9B2034B1B7816
:100B9800DBB28B4201D90023F1E770473400002013
:100BA800024A13780133DBB2137070473400002017
:100BB80008B502220F210120FFF712FE02220121AF
:100BC8000020FFF70DFE022211460020FFF708FE65
:100BD800022203210020FFF703FE02220421002045
:100BE800FFF7FEFD022205210020FFF7F9FD022292
:100BF80006210020FFF7F4FD022207210020FFF75D
:100C0800EFFD022200210120FFF7EAFD0222012167
:100C18000846FFF7E5FD022205210120FFF7E0FD68
:100C2800022206210120FFF7DBFD02220721012015
:100C3800FFF7D6FD022208210120FFF7D1FD02228D
:100C480009210120FFF7CCFD02220A210120FFF72C
:100C5800C7FD08BD38B50446FFF730FF002579E029
:100C68002078FFF755FF002211460120FFF72CFEE0
:100C7800FFF780FF012200211046FFF725FE60786C
:100C8800FFF746FF002201210846FFF71DFEFFF788
:100C980071FF012211461046FFF716FEA078FFF7F4
:100CA80037FF002205210120FFF70EFEFFF762FF44
:100CB800012205211046FFF707FEE078FFF728FF1D
:100CC800002206210120FFF7FFFDFFF753FF012255
:100CD80006211046FFF7F8FD2079FFF719FF0022DB
:100CE80007210120FFF7F0FDFFF744FF012207214C
:100CF8001046FFF7E9FD6079FFF70AFF0022082197
:100D08000120FFF7E1FDFFF735FF0122082110461A
:100D1800FFF7DAFDA079FFF7FBFE00220921012089
:100D2800FFF7D2FDFFF726FF012209211046FFF742
:100D3800CBFDE079FFF7ECFE00220A210120FFF746
:100D4800C3FDFFF717FF01220A211046FFF7BCFD7C
:100D58000135EDB2142D83D938BD000008B505E082
:100D68000548FFF777FF0548FFF774FF044B1B782A
:100D7800002BF5D108BD00BF2C0000202400002066
:100D880096010020034B01221A70034B00221A70AF
:100D9800704700BF9601002097010020034B0022F6
:100DA8001A70034B01221A70704700BF9601002089
:100DB800970100201F2809D93B2806D82038C0B23F
:100DC800012303FA00F0044B18607047012303FA6B
:100DD80000F0024B1860704704E100E000E100E019
:100DE800024B4FF480321A60704700BF0010024077
:100DF8001F291CD801280BD010B1022810D0704729
:100E0800012303FA01F10A4A13680B431360704780
:100E1800012303FA01F1074A13680B431360704773
:100E2800012303FA01F1044A13680B431360704766
:100E3800141002401C1002401810024008B50B4B59
:100E48001B78012B05D00A4B1B689847094B1B6878
:100E580008BD084B1A6822F002021A601A6842F0AC
:100E680001021A6000225A609A60ECE7980100209B
:100E7800A801002010E000E0064B1A6822F00102E9
:100E88001A601A6822F002021A601A6822F0040234
:100E98001A60704710E000E0074B5860074A11607D
:100EA800074A012111701A680A431A601A6842F049
:100EB80002021A60704700BF10E000E0A80100209D
:100EC80098010020024B58689B68C01A704700BF01
:100ED80010E000E0044B1A6822F001021A600022B8
:100EE8005A609A60704700BF10E000E0014B002292
:100EF8009A60704710E000E008B5FFF771FF022123
:100F08000846FFF775FF03210220FFF771FF06204F
:100F1800FFF750FF042200210846FFF761FC022278
:100F280008210020FFF75CFC022209210020FFF7BE
:100F380057FC02220A210020FFF752FC02220B2153
:100F48000020FFF74DFC02220C210020FFF748FC8F
:100F580002220F210020FFF743FC02220B2101206F
:100F6800FFF73EFC02220C210120FFF739FC06485E
:100F7800FFF70EFDFFF700FDFFF77EFFFFF718FEF6
:100F8800FFF7ECFEFCE700BFA5090008014B186855
:100F9800704700BF3800002030B5141E05469BB0CE
:100FA800184605DA8B234FF0FF302B601BB030BD9D
:100FB8004FF40273ADF80C300CBF234604F1FF3335
:100FC800029305934FF6FF7300910491ADF80E302C
:100FD80002461E9B6946284600F072F8431CBCBFB7
:100FE8008B232B60002CE1D00022009B1A70DDE7D8
:100FF80007B5009313460A46014603480068FFF701
:10100800CBFF03B05DF804FB380000202DE9F04762
:101018008E6882469E420C469046994637D88A8901
:1010280012F4906F31D00223256809696F1A656937
:1010380005EB450595FBF3F509F101033B449D429A
:1010480038BF1D46530530D5294600F035FB064606
:1010580050B90C234FF0FF30CAF80030A38943F091
:101068004003A381BDE8F0873A46216900F0B4FA4D
:10107800A38923F4906343F08003A38126613E444F
:1010880026604E466561ED1BA5604E4500D94E466B
:1010980032464146206800F0AAFAA36800209B1B4C
:1010A800A36023681E442660DCE72A4600F05EFB46
:1010B80006460028E2D12169504600F0B1FAC8E797
:1010C8002DE9F04F9DB003938B8980461D060C4691
:1010D80016460FD50B696BB9402100F0EDFA206078
:1010E800206128B90C23C8F800304FF0FF30C7E062
:1010F800402363610023099320238DF8293030238E
:101108004FF0010B8DF82A3037463D4615F8013B64
:101118000BB1252B3ED1B7EB060A0BD0534632460E
:1011280021464046FFF772FF013000F0A480099B7A
:10113800534409933B78002B00F09D8000234FF027
:10114800FF32CDE90523049307938DF853301A93A2
:101158002F46052217F8011B4F4800F02FFA049B71
:10116800D0B9D90644BF20228DF853201A0744BFAE
:101178002B228DF853202A782A2A15D02F460020B2
:101188000A25079A394611F8013B303B092B4DD9FE
:10119800B8B10FE02F46B8E73F4A3D46801A0BFA30
:1011A80000F018430490D3E7039A111D12680391C5
:1011B800002A01DB079204E0524243F0020307923F
:1011C80004933B782E2B0CD17B782A2B33D1039BAD
:1011D80002371A1D1B680392002BB8BF4FF0FF336C
:1011E80005932E4D03223978284600F0E7F938B1E7
:1011F8004023401B03FA00F0049B01370343049388
:101208003978062226487E1C8DF8281000F0D6F979
:10121800002838D0234B13BB039B073323F0070365
:1012280008330393099B4B4409936DE705FB02328E
:1012380001200F46A6E700230A2519460137059322
:10124800384610F8012B303A092A03D9002BC8D0A8
:101258000591C6E705FB012101230746F0E703AB2B
:1012680000932246104B04A94046AFF30080B0F12A
:10127800FF3F8146D6D1A3895B063FF536AF099873
:101288001DB0BDE8F08F03AB00932246064B04A9BE
:10129800404600F081F8EAE713AF000819AF0008EC
:1012A8001DAF000800000000151000082DE9F047E8
:1012B80091461F468A680B6906469342B8BF134693
:1012C800C9F8003091F843200C46DDF8208012B1AF
:1012D8000133C9F800302368990642BFD9F80030B5
:1012E8000233C9F80030256815F0060507D104F166
:1012F800190AE368D9F800209B1AAB4229DC94F854
:1013080043302268003318BF012392062ED404F11B
:10131800430239463046C047013021D02368E5688A
:1013280003F00603042B18BF0025D9F800204FF05E
:10133800000908BFAD1AA368226908BF25EAE57548
:101348009342C4BF9B1AED181A344D451AD1002098
:1013580008E00123524639463046C047013003D1E0
:101368004FF0FF30BDE8F0870135C2E73020E118C3
:1013780081F843005A1C94F845102244023382F83D
:101388004310C4E70123224639463046C04701309E
:10139800E6D009F10109D8E72DE9F04301F1430C42
:1013A8000C46097E85B06E291746064698460C9A63
:1013B80000F0B38022D8632936D00AD8002900F07B
:1013C800B980582900F0838004F1420584F842105E
:1013D80032E0642901D06929F6D12068136805062E
:1013E80003F104012AD51B681160002B03DA2D22B2
:1013F8005B4284F843206F480A2239E0732900F0E1
:101408009D8008D86F2920D07029DDD1236843F04A
:101418002003236003E0752917D07829D4D17823D5
:10142800654884F8453055E0136804F14205191DF4
:101438001B68116084F8423001238CE01B6810F0AF
:10144800400F116018BF1BB2CFE713682568181D3D
:101458001060280601D51B6802E06806FBD51B88CA
:101468006F2914BF0A2208225248002184F8431029
:101478006568002DA560C0F29580216821F00401FF
:101488002160002B3DD1002D40F08E806546082A52
:101498000BD12368DB0708D5236962689A42DEBF4F
:1014A800302305F8013C05F1FF35ACEB050323615A
:1014B800CDF800803B4603AA21463046FFF7F6FEEA
:1014C80001304DD14FF0FF3005B0BDE8F083394809
:1014D80084F84510136821681D1D1B6815600A06ED
:1014E8000BD5CA0744BF41F0200121601BB922680F
:1014F80022F0200222601022B7E74D0648BF9BB2B7
:10150800EFE76546B3FBF2F102FB1133C35C05F864
:10151800013D0B460029F5D1B9E713682568181D68
:101528006169106028061B6801D5196002E06A0627
:10153800FBD51980002365462361B9E71368191D97
:1015480011601D6862680021284600F037F808B16C
:10155800401B606063682361002384F84330A7E779
:1015680023692A4639463046C0470130AAD0236845
:101578009B0713D4E068039B9842B8BF1846A3E7BB
:1015880001234A4639463046C04701309AD00135D2
:10159800E368039A9B1AAB42F2DCEBE7002504F1FF
:1015A8001909F5E7002BACD1037804F1420584F85A
:1015B80042306CE724AF000835AF000810B5C9B257
:1015C80002449042034601D1002303E01C78013015
:1015D8008C42F6D1184610BD10B5431E0A449142FC
:1015E80000D110BD11F8014B03F8014FF7E788420D
:1015F80010B501EB020307D8421E99420AD011F830
:10160800014B02F8014FF8E78342F5D98118D21A45
:10161800D34200D110BD13F8014D01F8014DF7E791
:1016280038B50546002943D051F8043C0C1F002B5F
:10163800B8BFE41800F0D0F81E4A1368104633B952
:10164800636014602846BDE8384000F0C6B8A3427D
:101658000BD921686218934201BF1A685B68521857
:10166800226063600460EDE713465A680AB1A2423B
:10167800FAD919685818A0420BD1206801445818A3
:1016880082421960DED110685268014419605A60BC
:10169800D8E702D90C232B60D4E7206821188A42A6
:1016A80001BF116852680918216062605C60C9E76F
:1016B80038BD00BF9C01002070B5CD1C25F0030586
:1016C80008350C2D38BF0C25002D064601DBA94234
:1016D80003D90C233360002070BD00F07DF8214A47
:1016E8001468214691B9204C23681BB9304600F094
:1016F80063F820602946304600F05EF8431C24D188
:101708000C233046336000F068F8E4E70B685B1B95
:1017180018D40B2B0FD90B60CC18CD50304600F0E5
:101728005CF804F10B00231D20F00700C31AD3D086
:101738005A42E250D0E74B688C4216BF6360136090
:101748000C46EBE70C464968CCE7C41C24F00304BC
:10175800A04205D0211A304600F02EF80130CFD033
:101768002560DBE79C010020A0010020F8B50746B2
:1017780014460E4621B9BDE8F8401146FFF79CBF54
:1017880022B9FFF74DFF25462846F8BD00F026F898
:10179800A0420FD221463846FFF78EFF05460028A3
:1017A800F2D031462246FFF717FF31463846FFF799
:1017B80037FFE9E73546E7E738B50023054C054626
:1017C80008462360FEF7D6FD431C02D1236803B107
:1017D8002B6038BDA40100207047704751F8043CC5
:1017E800181F002BBCBF0B58C01870475374616397
:1017F8006B206672616D653A0A0000002052302045
:101808003D2020253038580A0000000020523120A1
:101818003D2020253038580A000000002052322090
:101828003D2020253038580A00000000205233207F
:101838003D2020253038580A00000000205231325F
:10184800203D20253038580A00000000204C522046
:101858003D2020253038580A000000002050432041
:101868003D2020253038580A0000000020505352EF
:10187800203D20253038580A000000004653522FDA
:101888004641523A0A0000002043465352203D2068
:1018980020253038580A00002048465352203D2061
:1018A80020253038580A00002044465352203D2055
:1018B80020253038580A00002041465352203D2048
:1018C80020253038580A0000204D4D464152203D11
:1018D80020253038580A00002042464152203D2039
:1018E80020253038580A00004D6973630A0000004B
:1018F800204C522F4558435F52455455524E3D2077
:10190800253038580A0000005B48617264466175EA
:101918006C745D0A000000005B4275734661756C6B
:10192800745D0A005B55736167654661756C745D2B
:101938000A000000807F807F807F80807F807F809A
:101948007F7F807F807F7F7F7F8080807F807F8098
:101958007F807F8080808080807F807F807F807F85
:101968007F7F7F7F7F807F807F8080808080808076
:1019780080808080807F7F7F7F807F807F807F7F67
:10198800807F808080808080807F808080807F7F53
:10199800807F7F7F7F7F7F7F80807F808080808047
:1019A8008080808080807F7F7F7F7F7F7F7F7F7F39
:1019B8007F7F7F7F80808080808080807F7F7F8026
:1019C8007F7F807F808080807F80808080807F7F15
:1019D8007F7F808080807F7F7F7F7F7F807F7F7F0A
:1019E8008080807F7F7F8080807F7F807F818180F3
:1019F800807F7E7E7E7E7E7E7E7E7E7E7F808180F4
:101A0800807F7F7F80818181818180808080807FCD
:101A18007F7F8080807F7F7F7F8081818181807FC1
:101A28007F7F7F7F7F7D7C7B7C7D7E7E7F7F7F7FCE
:101A38007F80808080818182828282818080808094
:101A48008081807F7F7F7F81828281807F7F7F808E
:101A5800807F7E7C7B7B7C7C7C7C7C7D7E808080A8
:101A68008080808182828383828181818282828157
:101A78007F7E7E7F808181818080808181807F7E62
:101A88007D7D7C7C7C7B7B7B7C7D7E7F7F7F7E7F7E
:101A980080828383838281828283838381807F8023
:101AA80080818180807F8080818180807F7E7E7E32
:101AB8007E7C7A79797A7B7D7E7E7D7E7E7F818150
:101AC80082818182828384838382818181818180F2
:101AD8007F7F7F80818181807F7F7F8081807E7C06
:101AE8007A797A7A7A7A7A7B7C7E80818180808121
:101AF800818384848383828383838381807F7F80BF
:101B080081828181807F808080807F7E7E7D7D7CD8
:101B18007B7A7979797A7C7D7E7F7F8080828383E6
:101B2800838383838484848482818080808080808E
:101B3800808081818181817F7F7E7E7D7C7B7A79B7
:101B48007879797A7B7C7D7E7F81828282828283AA
:101B5800838484848483838382818180808080805D
:101B680080808080807F7F7F7F7D7B7B7A79787B98
:101B780078797C7D7C808782818588848689858345
:101B880084837E81807E7F7E7E8084818587868334
:101B980088837F807C75747070796F71777C727FB1
:101BA8008680828B89828A888683857F807A787905
:101BB8007876777C7C80868C8D9193918D88847CD7
:101BC800756F6A6667746E717D827D89928C919259
:101BD800918A8A85867F7B7D7A777B7B787D7F7EFD
:101BE8007F8584888789817F7C7C79767271796F1B
:101BF800747E7F7A84868387898E8B888B877F7EA5
:101C08007F7B7B78797C787D8180828686888382D9
:101C18007E7A75736B76746F7F7E7D818B888D8CF1
:101C2800908D8589847D7D7E797D7B797E7C7E82A1
:101C38007F8486858883817C7874746A76756D7CE8
:101C48007C7D808A898C8D908D888886807E7E7C3C
:101C58007B797C7B7B7D817F8586888684817D7985
:101C680078736C786E6F7A7A7F848C8A8C8F908A7E
:101C78008B8883807B7C7C79787D7A7B8183848662
:101C8800878780837E7C76756D6F746D797C8083A1
:101C98008A888B8B928B8989827D7C7A7A7B787F04
:101CA8007C7F82868387838782807F7A74726B6B5E
:101CB800756E7B8182848C8A8E8B928D84867D7AE8
:101CC800777A787D7B818383858985858684827C04
:101CD8007C74706E686C766F808183878C8D8F9032
:101CE800928C83847B7C787C797D7F7F84838386D8
:101CF80083848684817D78746F6C67717572828144
:101D080083888D908F90928684827A7B7A7A7B7F83
:101D1800818186838484848584847D7A75706C6BE4
:101D280069767178857F878B8D918E908E82847F7E
:101D38007A7B7C7A7F7F828582858483858585818D
:101D48007D78746E6C696E73717F7F82898D9090D7
:101D58008E8F8681807B797B7B7D7E808581858562
:101D6800838683847F7C7973706F6B6B77727C84D6
:101D7800848B8E918F8E8D8980827E797A7B7E7B13
:101D88007E8681838884858585827C7B756F6D6C72
:101D98006570747482848A8F9292918E8D85818009
:101DA8007B7B7C7F7F7F8483838584848483827C20
:101DB8007B76706F6D6767726F7684848C9292946D
:101DC800918F8C85817E797C7E7E828183858383D9
:101DD8008182807F7D797774726E6F696D7573808B
:101DE80084878F8D91918D8E8A83837E7F827D8477
:101DF800827E84807F83817E7F7E78767575707120
:101E0800716D71787B7F888A8B8D908C8B8B8580A8
:101E18007F7D7E7E828482838381818282807F7EB1
:101E2800787B7A787A787674737376787A7C7E831E
:101E380085878B8A8A8A87848583828382807F804C
:101E48007F7E807E7E7D7C7C7C7C7D7D7C7F7C7DB6
:101E58007C7B7B7B7A7B7D7F808283848584838384
:101E6800828283828382828180807F7E7E7F7D7F63
:101E78007E7F7F80828081807F7E7E7E7E7D7E7E6B
:101E88007D7E7E7D7D7D7E7F7F807F80808281805C
:101E98008180808082828383838383828181808121
:101EA8008080807F7F7F7F7E7D7D7C7D7D7D7D7E48
:101EB8007F7F80807F7E7E7D7F7E7F7F8080818226
:101EC800818282828283838283828282827F7F7EF2
:101ED8007E7D7F7C7D7F7E7E7E807E7F7F80808111
:101EE800808280807F7E7E7D807E828081818081ED
:101EF80081807F807F8080827F82817E81807F7FDA
:101F0800807E80807F8081807F7F7F7D7E807F7FD5
:101F18007F80808080807E7E7F7E7F7E807F8081C4
:101F2800808181807F817F7F81808081817F7E80A9
:101F38007D7F7F7F7F8080808180807E7E7E7E7DAA
:101F48007E7F7F7F8080817F807F7F80808180818E
:101F580080817E807F7E7F7F7F7F8080818181807E
:101F6800817E7F7E7F7E7D7E7E7E7E7E7F7F7F8080
:101F78007F808181818381817F807E7E7F7E7E7E5E
:101F88007F7F818081807F80807F7F80807F7F7E50
:101F98007F7E7E7F7C7E7D80808181828280808042
:101FA800807F7F7E7F7F7F807F7F7F7E7F7E808038
:101FB8007F80807F7F807F7F7E7F7D7F7F7F808027
:101FC8008080807F80808080807E80807E7F7F7E12
:101FD8007E7E807E80817F807F807E7F7E7F7E8008
:101FE800807F81808281808180807F807E7F7F7DED
:101FF8007F7E7F7E7F7F7F8080807F817E80807FE5
:102008007F7F7F7D7E7F7D80807F818181808081D1
:102018007F808180807F807E7E7E7E7F7E80807FC5
:1020280080807F7F7F807F7F817F808080818081AB
:102038008080807F7F7F7E7F7F7F7F80807E8080A3
:10204800808080818080807F7F7F7E7E7E7E7F7E95
:10205800808081828182818081807F7F7F7F7E7E78
:102068007D7E7E7F7F80808081828081818080806C
:102078007E7F7F7E7E7E807F80818181817F7F8160
:1020880080807F7F7E7D7E7E7F7F80808080808154
:10209800808182818181807F7E7F7E7E7F7F7F7F3E
:1020A80081807F8181828080817E7E7D7D7D7E7F33
:1020B800807F80807F7F8181818182828180818011
:1020C8007F7E7F7F7D7F7F7E808081818281807F10
:1020D8007E7E7F7F7F807E7D7E7E7E7F80807F810B
:1020E80080818181808081807F7F7F7E7F7F7F81EB
:1020F800808081807F7F807F80807F7E7E7E7D7EE6
:102108007E7E7F7F807F807F7F82808081818080CC
:10211800807F7F7F8081808081807F8080808080B9
:10212800807F7E7D7D7E7D7E7F7F808081808081B7
:10213800818080807F7F7E7F7F7F81818180807F9B
:102148007F807F80807F7F7F7E7E7E7E817F808094
:102158008081808080807F807E7F7D7E7E7F7F8083
:10216800817F808080808181817F807F7E7E7D7E6F
:102178007D7E7F80808180818180807F807F7E7E60
:102188007E7E7E8080808180808181818181817E48
:102198007F7E7D7D7C7D7E7E7F8181818181808047
:1021A800807F7F7D7E7E7D7F7F8080808181808132
:1021B80082828281817E7F7D7D7D7C7D7E7F818024
:1021C8008183818080807F7E7F7E7D7D7E7D7E8015
:1021D8007E8080818283828282808180807D7E7EF3
:1021E8007C7E80808082828181808080807E7E7EED
:1021F8007D7D7E7E7D7E7E7F8081818181818080E4
:1022080081807F7F7F7E7F808181828181818181C2
:1022180081807F7F7F7F7F7E7D7E7E7D7F7F807FC9
:1022280080807F808180807F7E7E7E7F81818282A8
:1022380081828181818180807F7F7F7E7E7E7E7E9C
:102248007E7F7F7E807E7F7F7F7E7E7E7E7D7E7F9F
:102258007F818282828383828383828280807E7E62
:102268007C7B7A797A797A7B7E7E80808181818491
:1022780083838483838585858585848381817F7E27
:102288007C7A79777676767778787B7E8082858691
:102298008687878685858585858585848382817FF0
:1022A8007D7D7B7A79777675767577797A7C7D7E90
:1022B80080838587898A898A8B8A888885838280B2
:1022C8007F7C7A7774747172757474787A7C7F8283
:1022D8008384868686878886898A898A8A87868388
:1022E800807D7A7774726F6D707171767B7C7F8375
:1022F8008586898A8989898788898888898786855A
:1023080083807C77736F6B6B6F70707679797E845E
:1023180084858A8A888C8D8A8B8C8988898785842C
:10232800817E7A76726F6B6B6F6F70777C7D838836
:1023380087898B8A898A898587878586888785851D
:10234800827E7B76716D6A6E7071757C7C7E848509
:10235800868B8C888A8A858486848386868487850A
:10236800827F7C75706C6B6E6E6F737A7B818889E7
:102378008B8E8C898C8985868683848784848682E3
:102388007F7D79726F6B6C6F6F73797D7C838786C5
:10239800898D8B8A8D8884868482848785868784C4
:1023A800817F78726F6B6D6F6F73797B7D8487899E
:1023B8008B8D8A8A8A8585878584878685868482A7
:1023C8007F7B74716E696F706E727C7D7E8989887F
:1023D8008B8D88878A848286838386888689898488
:1023E800817D766F6C696D6F6F717A7B7D8687876B
:1023F8008A8D88888B858487868487878589868265
:10240800807D766F6B6B6D6D6E737A7B7F88898943
:102418008E8E88898B858488878387868585847F47
:102428007B79706C676A6C6C71777E80868C8D8B1B
:102438008E8E888A8A8382858683878888878A841D
:102448007C776B625E68676B757A7E818D8B8F9205
:10245800908B88888083828885878A868787847C12
:102468007B716763606A6D748184878A90898E87BF
:1024780087817F7E7C7F7C8A838A8D8D878B857C14
:102488007D7169635F6D6C738784879190858D8298
:10249800837C7A7E7B78868782928F898E8E8482EF
:1024A8007C71655F606D647D81818C938B8D8E8579
:1024B80082797F7B797E877E8A8B878A8E888680E1
:1024C8007A6C675D6D6971847E8B8F928C92898836
:1024D8007A7F7C797A837D818B84898C8986817CDB
:1024E800716962627166827F8890928E918D88820E
:1024F8007D817A7B82867E9088888C8B83817D71B2
:102508006761596C67768581919190908F888578FD
:102518008178787F86828C8E8A8F8F8D8284786787
:102528006759636B6B7F7F8890908C8F8782787BED
:102538007B777D858388918C92929086827D67686F
:102548005C5C6C687D818B939A94958C87787776A0
:102558006E74797F7E8D8C8E93948A888673686971
:10256800546B65748184929394928F8683777E717D
:1025780075777E7D878B8B8F928C86887D6C6F5E5E
:10258800617167827F8A90918D8E8686797A787359
:10259800787F8285908B8F8F8F85857F716868554E
:1025A8006E687586869193938F8D8881777C747613
:1025B80077857C8C8D8D91948B88827A69685D5E35
:1025C8007164807D888D92908F8B897C7D797675FA
:1025D8007D847C928A8D928E868780776A6C596E0C
:1025E800696E837E8D8F938F8F8784787A737372E9
:1025F800847D8591878F908A87857C6F68635D73FA
:10260800687F8488949793928F858077756E7074AD
:10261800827A8D8D8B928F878781766A695C6470E8
:102628006883848C959B92948D877A79746E707E7A
:102638007F7D938B8D949085887E726768576A6BCF
:102648007083848D94978E928A85787E7373748450
:102658007A8490878E918C838A7D726B6959706AAF
:102668007682898D94948E8E8781757C7274768635
:1026780078888D8A8B918A83897B716C655C726698
:102688007883878C989190908880797C7275798608
:10269800798C8D8A8E95868688776D6A5D5B726582
:1026A8007985898F9B92938E867C767671737986ED
:1026B8007B8D8E8C8E97888786786D6B5C5F726356
:1026C800798486909D919692887F7B75706F7681CC
:1026D800788C8E8A8E97868787766C6C5860726540
:1026E8007D8889929D9297928A807C76726E7A8094
:1026F800788B8A898F95878B87776E69565F6A632F
:10270800778286919D9598938A817D7771717A7F7A
:102718007C8B8C8D9194888985766E6959606A6303
:10272800768087919A9494918B817E7870707B7D66
:102738007A8D8B8C95958A8C84746B6556626867E4
:1027480078828991999595938B807E797272827D32
:10275800808F8A89928F84887E6D6B625768656DD9
:102768007A8389989895989188807C787374827711
:1027780080888789978F888C7D6F6E60606B6472A4
:102788007B8087958F90938D87847F7C767D8078FA
:1027980085878689938887867A716D606B6B687385
:1027A8007A7D848F8A908E8D888585817A85817CD3
:1027B800818482868F85858579727068706F6D7166
:1027C8007D7A7F868888888B8688868384858083BF
:1027D8008386878D8A89877E757066686C666C7259
:1027E800797E86858F908B8E8D888687828384807C
:1027F800828787868686827A72686A6D666C72744A
:102808007A83838B8F8A8F91888A8C858885828347
:102818008488878786807676666772656B72757B33
:102828008882898F8A8D8A86898982878781838829
:10283800888788837F77736965726B666F7D7E870B
:102848008A8F918F928C8883817B827D7D8384841B
:10285800888981827B72676B73656F7C7D7F8D8DC4
:102868008890938A8489817B82867D828A85818605
:10287800867C78756D626F726979818385908F87A0
:102888008F8C837E83797C848382878D8B8C8B89E4
:102898007E7873646271676C7A7E7E85928A8A8E8E
:1028A8008C8084827B8184807E89898789887F76F1
:1028B800726A6170746D7E858686908D8687877E44
:1028C80079827C7E878A848C928B898B80747067EE
:1028D800596273677787868996978E918D837A7BFD
:1028E80076747E8180848C8D8C8F8B80766D615917
:1028F8006C69697F84878F9C9291918C7D7C7C72B6
:10290800798280808A8A8B8A8D7D796F6457666C1C
:10291800647C83898F9C9694958D847C7C75767E67
:102928007E8084898D8C8C877B736959586A5F6B2C
:1029380080818A98A1939E988D818479717D7A7718
:1029480080838489888A7E7C726A5E716A697D7FE9
:10295800858C999192938C827F7F757A827C808511
:1029680087868888817C746C616671657681868BC0
:10297800969D9299938B7F82746F7776767C848705
:10298800878C8D8082776A636E6866797B7F8B938C
:10299800949399958D888878777C757779807E81EE
:1029A80085837A7C736C65786E6D83817E8C98855F
:1029B80093968E8888857A7D827A7B7E80817F87D0
:1029C800807C79726C5E78706A84857F8C9E849333
:1029D800988C868A85778182787A817D7F848580C4
:1029E8007E7C6E6C5F6E74667F847F889C8A8D990E
:1029F8008F868B887C7F867A79828180878882819E
:102A08007D74686865796477817E839492859790F0
:102A180086838A787B837F76828581848E8383828E
:102A28007D6B6D656F6F6B837C878999848F9289C5
:102A38008387837781847C7C848281868780807E7B
:102A4800736A6B5F77687781858A919B84958E8896
:102A58007F867976817E7C7F8686848D8883828056
:102A68006E6D636074607A7E87869A9385998A858D
:102A78008285757C7F7D7B818882898C8585837B37
:102A880069705C69706581818B8BA18B8F978A8255
:102A98007E7E70777B7B778786888C8E8B85847A21
:102AA800696B5C6A6A667F8086919F8B94998B813B
:102AB800837E737A82777A8485848990848384720A
:102AC800666C586E686B828288969E8B9996898010
:102AD8008378707A7C747D888689928F898A836EE0
:102AE8006C62586C5F6F7E818899948E9994888304
:102AF8008374767C7C788289898C938E89857E69BB
:102B0800695E5F6C647A7E868B98918F978C817FE3
:102B18007A71777C7A7C868C8992938D87857866A2
:102B2800685B6A646E7D808794998B9894848181B0
:102B380072747979768088878A8F8F8685806D69A7
:102B480060686C688081858E9A8B8D988680847B7E
:102B580072797F7A7E8989868B8F837E7F6F6463A3
:102B68006171667A84828D9893889B8D8184827640
:102B780079817D7D838B83878E867E7D796368608E
:102B8800706A6D867B878F958494948286857E7A19
:102B9800858081828886828B86827E7F6C6C646B5E
:102BA8007667827D808791848597828583827B8200
:102BB800858384888A828988837C816E6E6668773B
:102BC800677B7E808294898596898583867B7F83CF
:102BD800807E82867E8689867D85756F6B6A796937
:102BE800797C7E818F8A83938B83848A7B8088809B
:102BF8007D86847D8588807B83726C6B6C786C7F26
:102C08007C80898D89869285838086777F877C837F
:102C18008B86808E8880807E6B6A6567716A7B7B15
:102C2800818D918A8E948783838276818380828D39
:102C380087848E87807C7D6968656A6C6E7F7983FE
:102C48008F908790918282847C79868282878F8414
:102C5800888E837D7A75636664706A7A847F8D95C1
:102C6800908797897E807F7379837C82898D878D11
:102C780090857D7A6D63606B6E6A81818691988E8E
:102C8800909689807E7A6F7A7B7C7E89888A918CFF
:102C9800847C756760616E68777F838F9896949956
:102CA800908A827F727778797E8383888F8C8780F9
:102CB8007867655C69656C7D7E8B9799909E958732
:102CC800888375757C787A85858390948A898171E3
:102CD800665E6460637276809197919C9B908B8608
:102CE8007E757A78797E81828B8C8E8A817C7065FC
:102CF8006A686572717D8A8F8F98958F8A867D77CD
:102D08007D75787F7E7D878B898A847A716B706AFE
:102D18006A757379888D8C9598908C8E837D7D7A71
:102D2800797A7C7C7D83887F7B7871687874707C05
:102D3800798183898A8E91918B8987837E7E7E7C37
:102D48007D7E8081837F766E6D6D75707A7B7B87E3
:102D58008783888E878B8B88838B868588858181FE
:102D6800827C7C736B66637170767E82888E8D89B7
:102D78008D858582818081818688868A89878784F6
:102D8800796F6B5E646F6A767F868E938F91918C74
:102D980084807D7A7C7E84858A8A8B8F8881746B17
:102DA800605D69656F77818C91929598938D847E2B
:102DB8007979777C8186898B908E887C7166626848
:102DC80061697076858A8E939B98968E8A847E78C0
:102DD800797B7F84848A8C8A7C7668666A64696C6D
:102DE80075808388919697938F8B89827E7E808069
:102DF80081848989847870656B70667070797F8149
:102E0800838F938F8E88888A838087858585888835
:102E1800867C726D646D706C707781828489908E07
:102E28008D848187807C7F88878A8C8C8A87796A61
:102E38006464746E6E737E8687868C9791877B7FB9
:102E48007D79787D848A8E8C908D846D655F6677B8
:102E5800717684939089838D91807572797A7C7D5F
:102E680088929393918D826B5B5654717F798BA076
:102E7800A49C877E88766763717C8088919E9E98E3
:102E88008B85785F483D43769C97A7BDB8A17B6545
:102E98006B5C485B758598A3AAAFA78D786E61486F
:102EA80035344B90B3A7C2CCB28E68575B4E476A95
:102EB800839BABAEB2B598776E5E57382C3D6CB03D
:102EC800B4ADC8C09771575A5B4C5C879DA6A5A541
:102ED800AE9F797271684A333C5E9FAFA3B0BD9DC7
:102EE800725558665C5E83A5AFA39A9E9D7B6970F8
:102EF80071603C41589CB6A1A8B29D744F4B646365
:102F080063839FB1AD969C9A7C6D70716A4A4051FB
:102F180095B9A2A8B29E7950435E65627EA1AAAE19
:102F2800968E96856E73776F52494883C3A7A5B16D
:102F3800A87D5442596A66759BB3AF92838E806DA3
:102F480068727655484B83C9B5A5B7AE7F4C3A59D8
:102F58006967799DB2B69380958869626F6E4E40B5
:102F68004375CCC0A6B4B388543A566F6B7899B100
:102F7800B7987E92906F626B745236386EC2BCA35B
:102F8800AEB38B583B5B7E75769AB4BA97778A8BCB
:102F9800705F69785E3F3B6AC0C09FA5AA845435BC
:102FA800517E80819EBCC4A17A83856F5D6270600A
:102FB800443F66BAC9A7A0A5885C3248787F7F9A43
:102FC800BBC3A376818E765F657768444161B2C6DC
:102FD800A19FAA8F5D374C77787590AFB89E788897
:102FE800968066647A6D423D5AAECCA39DAE9A62D5
:102FF8003647797D7489A9B89B7383968464607712
:1030080072494157A8D2AB9BAAA06F3F3C6F7C7412
:1030180086A3BAA67C8193886A616D69403A4E9608
:10302800D3B59FAA9F784B406E817B829AB7AE82B8
:103038007C8A8970636F704A394285D5BD9FA79C89
:10304800754536678483889FB7B98B7C8B8A735E96
:103058006775583E4377CCC29A9B9B794A2F5C8709
:103068008A899DB8BA8E7585907F61647863474771
:103078006BC0C49A94968159334E7B878891ABBABA
:103088009E798091876D6773694C4D60ACCAA49234
:10309800958964394673828588A1B1A47E798A8F1F
:1030A800786A7675524C5495D3B499958D71443598
:1030B80066838A8791A7A986737C89806D727D64EF
:1030C800504E78C7C2A0929280573759818F918D00
:1030D800A2AA8D6F6E82816C6D7B70575563B1CBE0
:1030E800A8938F82694349798B908F9BAA9A786EAF
:1030F8007C867169747659524F91D4B89D928D77B8
:103108004D3C6686918D93A7A6837478857B696EFE
:1031180079634F4D67BEC9A3908F816442558292EF
:10312800968F99AB9476707B85736F74735A494BFD
:1031380094D3B694878577493D718E9D958FABA8BA
:10314800866F76877E6F6C7669504464C2D0A2879A
:103158008282633B4F7F969A8A9DB19E786E808962
:103168007D6D77735646448FD7BE998283754C3FE1
:103178006E909F9086A7A6866A718D8E77748169F6
:103188004C3B54B8D1A68A8485693E55879D9E8458
:1031980091A9946D617993877583805C4D3F80D147
:1031A800B49080817C52417395A29387A2A57B62DB
:1031B80067868F777B876F544351B6CFA58A818204
:1031C8006C4150839C9F888BA7956D617698867813
:1031D8007E7E604B3574D4C09B86888A5D3C698F3F
:1031E8009E938095A78163678D98807D80704F3905
:1031F80034A0D7B391808C814D4C83A0A58C819A43
:10320800996B6576988D7D7D7D60463357C5CBA4D7
:1032180085858D6B3C5A8BA7A0848DA78E696B839F
:103228009C8479756D4B423780D8BF9D868A8657B6
:103238003C698DA58F7A96A986747896A182777154
:103248005E433B3C9ED1B095868C7C4D4F809B9CC9
:103258007C799598797281A79F857D735A46334EFC
:10326800B3C5A4867F88714A628CA3987980988EAA
:10327800706D85A6927F7E755D493772C9BF997B4F
:103288007D825F466D93A18A7387A38D6E7392A228
:10329800817378755A46428FCFB593818982584E8B
:1032A800768D947B7292A585717F9A96776C7673EA
:1032B80053414AA4C8A78D869482545B85908A6F2F
:1032C800789F9B777184A28E6E72816A4B3B5ABD40
:1032D800C3998088977649628E988A6F89AB947172
:1032E8006D86A0816B797D5C463B73C8B7958490E9
:1032F80092674C708D8F7C7298AE937774909773A9
:103308006E7A71523D3685C7AF988D9B915D4D752C
:103318008A8C787AA2AB8B747D9A9576777D68448F
:1033280032378DBEA39594A18E5956818E8A777FA8
:10333800A39F7B6D829E947D83886B43333D9ABCAB
:10334800988C8D9B845059858E8F7D89A997716C37
:103358007E9A8C7885886245354DB2BF9D8F8B9457
:10336800744157808F938093AF9A76748AA0836F45
:10337800787150392E64CBC4A898959B6536587CD3
:1033880089857796AA937984A1AA8172776B473049
:103398002D73C8B6A7979F9C654468828B7B708FF6
:1033A8009986738AAAAA827879693E2D3387C8AE2E
:1033B800A096A28F584D778F927577979479738CD2
:1033C800AA9E716E7862393347A2CDAE9D929F81D5
:1033D8004B507F908E7382A79E827E95A5895968EF
:1033E8007250323756BACFAC9E979F724557818438
:1033F8007F6B90ACA1898AA8AB77586965452E3850
:1034080063C3C1A4A4A5986D4B62817C6D6D98A51A
:10341800998995ACA4716672643F32396FBEAE9ECD
:10342800A3A4936C4F697B78727BA1A5948D95A01A
:1034380095747274603E3B4178B7A8A49F9B8D65D4
:103448004F6874787A89A5A3989290938B75767350
:103458006345464C82BAAFA6938F825B4964747CFD
:103468008391A2A59D90878D8473716C624C515293
:103478008AC1B2A495927A5248637682878CA2A7B1
:103488009488868F88746F6F66514D4B90C2ACA339
:103498009C987B544B6879838089A39F8785848F08
:1034A8008E7470736A51494B96BFABA09B997A533F
:1034B8004E6B7E89828DA19B80808290866F6E7410
:1034C8006C524C509BBDAD9E9E9A7653507083842F
:1034D80080889DA07F7F8C967F6C6B73654F444C72
:1034E80099BAA9A0A89E7D5D597D847A787D969821
:1034F8007D849C9F846F727362453E468DB5A0A9FA
:10350800ADA1836266827B757681928E7F8B9E9D4C
:103518008676777B6340444081A39DA6A19B806B00
:103528007687787B7C838A8C888C9A93857B79795B
:103538006253544578A7A49C938D77687278707FFE
:1035480087898D999D97978F7F7372665D595748C4
:103558007FB5ABA0989477656C6D66797B848F9AFC
:10356800A29C9E94817B755F5F57494281AEA3A15F
:10357800A7A1836F787464717179849392979A95EF
:1035880089857E6F63534C3E719C919AA8A1937A6A
:1035980087876F707276878B848A8C9586898D79F8
:1035A800675F574164948993A3978D788991726C6A
:1035B80079808883888F888F868C8D6F6D64554D50
:1035C8005E8F919BA590878186846B6579838D89B1
:1035D800909A92938889805F5F544E44569799A435
:1035E800AEA2968F857F655B6D768A8A98A5A1992C
:1035F800968B7455534644365F9593ACB1AEA09AFA
:103608008D85656066768584949FA29B93876F5AA3
:103618005A47424070868EA2A09E98959489726FF0
:10362800768C87878F969C8D817F6664604D535A10
:103638007A868DA3988D9083898068748A93908FF9
:103648009A9F9184796A625A54545868808B9FABC8
:103658009A968B87806A66728B928B98A7A79287B7
:10366800796361574D5451577B889CAA9CA09D92C1
:1036780085756E7A818286909D9C94887F6B606048
:10368800575A50536C768A98979FA09E928B8A8738
:10369800898A86898C8B887B74635C63625E646DBF
:1036A800737785898F96939591918D9090928E8B53
:1036B8008D8C817367565859595E6E7479848993D5
:1036C80098949A98979189908B8688898A917F7225
:1036D8006B5C5A545760676D74818E95999A9FA058
:1036E80098918A8E867C7E858C89847C74685F5EDE
:1036F80061656564707D8390909AA3A09D9594916F
:10370800837A7E81827E7F7D706762676B68676A75
:10371800737A83888C9C9DA3A195978C83817F80E5
:10372800817E81786A656869696B676B717B80885F
:103738008E96A1A0A094928A84837E8688898378B5
:103748006C65656363615F666B7D878E989FA79FD5
:103758009C8F85837E7A818F93938D837467636052
:103768005C565258677A8B94A3A8AAA4978C7E7F3C
:103778007576879398958D86736562615E554E540C
:1037880067788B93A3ACABA3958B827C71788B9372
:1037980097918F89766564645F524C59647C888FF1
:1037A800A2AAA59E97908A807C858F928D8A867F13
:1037B800706466636154505E6A7D8A8E9DA29B9791
:1037C800929089828C90939B908683786A676362D3
:1037D8005D54576371868F8D9C958C9289878586F9
:1037E80092929699908682766E67625E59585B6F60
:1037F8007E8D98989892898B85808484908C9195F9
:103808008F8B837E6E645A575355627486959E9A41
:1038180099928D8D8A8082848585888D8B89888010
:1038280072635B534F5D677B8A96969798958E96E1
:1038380095818C837D7D80817F86867B70675D59CD
:103848005F6972828F918A8F8D8589988E8F948710
:10385800888384847D837A69625752576E77869C01
:10386800A39A9391837780847B8988838E908E92A4
:103878008F87786652433F52697292A7AAA79F978B
:10388800857D81777C827981878C8F9598857A6907
:103898004E3D465F6882A0A0A5A2968D84837E7F58
:1038A800877D7683838A8E91887D745E4647686AB1
:1038B80081A09F9C9B91817B80797C938B8085855F
:1038C80085838B847674694F4A696E86A4A39D9814
:1038D80096807276737087958A8E8B8682858275BC
:1038E8006F64534660717EA6ABA49E9A90766D6A0B
:1038F8006575909091908985838D84776858455433
:103908006B6E94A7A1A39D9C8C746E666E858B8C40
:103918008D848279878D8272624E4C6E6C839C99FD
:103928009C9C9B947E7770667B8E8B908F86807C28
:1039380088857967584460737993989D959694869D
:103948007975686C838C8E988E8C82838B7F6F6080
:103958004A466D72859B9C9B9A96917A7176626DA8
:10396800878B909A8D8B848C887D6B5A474F7A769B
:103978008B9D9996968F897574776774868C9096C7
:103988008E8D838C8576665B43538279909C9E9C52
:1039980092898677717264738890949691908484E2
:1039A800817561584857827A8B9EA19A8D84887C4C
:1039B8006D6D67779092919B9590837F8076615526
:1039C8004D597E7A87A0A1978B898E7F666A6F761C
:1039D800898D8D96979287888A7C6757535672731C
:1039E8007F9B9A928D959480666D7474828A8D956A
:1039F800938F8A898F826D5F58526C717A969793EC
:103A0800939793806670766F7D8B8A918B8A8F856A
:103A18008C8876685F516A787792989796908A7EB4
:103A2800626A776F7D8E8F93908F95888785726095
:103A38005745617D7C96A8A99D8F847B635E6D6ADE
:103A4800778C8F969A96988B858574635843557AA8
:103A58007C92ABADA191807D6A5D6B6B708489921D
:103A68009B959A938E8A7867583E45728193ADAD3F
:103A7800A597817F73616D6A697F858D9A92969506
:103A8800948C7C6C593E396C8795ADABA79C7F783C
:103A980072646E6567828B929A94959999897A6C0B
:103AA800543B32648B9CABABAA9C806F6E68676595
:103AB8006C8497979595959994827A6D50423A635C
:103AC800959FA8ACA89779646C68646D6D87A09978
:103AD8009697989B8B7C75684E433D639DA9AAA9D0
:103AE800A8957562666761686E869E9C979BA19D86
:103AF8008D7C72684B42435D96A6A7ACA8987F6BF5
:103B0800676A60646A77919899A0A2A0937D746CA3
:103B1800554B445387A2A4A6A59988746C6F666513
:103B2800686E869B9D9CA3A0907D737263504450E1
:103B38007DA4A5A0A1978777716F635C62718DA53D
:103B4800A39DA59C8675707768514950749EA5A25F
:103B5800A3958780776E625862778DA0A19EA29800
:103B6800837777756C5F504F688EA1A3A3988A837B
:103B780077665858677C8DA0A7A6A092827D77713A
:103B88007266554E54799BA3AAA6988B79635A57A7
:103B980062738298A8A59D8F8888817D7E715C4C10
:103BA800445B85A0B1B09E938169605F5D6C798844
:103BB8009FA39893928F8C87837D654C3C3E679535
:103BC800B2B9AD9480777269636469788A949E9F6C
:103BD8009B979490867F685040364880ACB9B9A6C8
:103BE8008D887E6C655D5965738DA7A9A59D9A968C
:103BF80088786B5A463B3A5C95B7BCB3A78F7A7303
:103C08006A5F59566585A2ABAFAB9E988F7F6F6090
:103C18004E4144455F96B1BFB99F8A7D6E61575545
:103C2800657A8B9FB1B0A698938E806E5F534B4296
:103C38003F5897BFBCB19D84776A5E62626872879D
:103C4800A1B1ABA09C978B7C6E665C4A42465B88B0
:103C5800AFBCBBA27F6B7175796D5E68809BAEAFA0
:103C6800A19181807D7469605C5E5A5B759BB2B17D
:103C780093766D7281857B716F778DA1AA9F8C7CFD
:103C880075727076818470656262788A8E958F7994
:103C98006E7B86908F81767A8790938E77646C821C
:103CA8009C9E8B797575726B6A78817C7E7F7D7E30
:103CB8008082878A888687887B7074899A998B82A4
:103CC8007E777370777F7E77747F83797477797B5B
:103CD8008183868A8A80828E8F8B837A726A6B77D9
:103CE8008C9A968D89887F726665727B787E7A6DEC
:103CF80076808F9C9C8A7977716F787D868B878D8B
:103D08009698907D787A7C7A786C5F616A7F9593D3
:103D180082787A81878A847F7E80838A898278768E
:103D280086909799907F76686671675B6173848ED9
:103D38008E888A8F949A948570615D6C8391989D22
:103D48009787898D92917A5B4F4B43476895B3B6B5
:103D5800AB9E90897D716A685E607392A6A5A397F1
:103D680096897975766B5B4F576E73758DABB1A37A
:103D7800856B6E767A8389887568758FA49F8D8028
:103D8800736A697089958778777769616C8294908E
:103D980083828E93878083807465687C898A848710
:103DA80090908D959C907259585D5D5F7895A5A10E
:103DB800887B838A827E7B71665D6383A0A6A6A5C5
:103DC8009B877475807F7061636B676471859EA53E
:103DD8008E79797E7D7C7F837F73778D9D9D908E94
:103DE800877970778C927D645B5E67666C7D949D45
:103DF8008F7F828F8C888B887E6C687B8B95929066
:103E08008F806B73849390725956595B6B7F9FB008
:103E18009D847D848B8D8D887B6B5F647B8F959B68
:103E2800989080757F8E8A76594B54596884A3B6CA
:103E3800B1927D7F84877F70665E5B6E89A9B2A729
:103E48009D857071717981705B555B6A8B9CACB78D
:103E5800AB8A6B5E636C6E727482878996A4A79E28
:103E68008069636A74838C8D80675C638196A09E89
:103E78008B6A53536E97A6998E82786E7086959644
:103E8800826974909B9D978C77573E455B748A95A1
:103E98009B9F8D848C97947C6A636061697FA6B5CB
:103EA800A6968F9496837969482F253D7FB4C9CA11
:103EB800B18F6F5D6B8281786359697995B9C7C194
:103EC8009C75655F5A5C636A766F6D7E92A6AA9947
:103ED8008774626068717E83858D99A3A39D917AAA
:103EE8005F55658096988B705B505A7994A5A18B25
:103EF8007366687B909C9C927D6C68737B889A9AA9
:103F08009A93847975716B625554677C8F9DA19AD9
:103F18008B83848985796960617087A4B9B3967247
:103F2800656C7983847E6F5440517C9DADB3AB92B0
:103F380074635E6D7D7A7787938F8F909796816E85
:103F48006E7B887F757364504E6E98ADAEA0857495
:103F5800645F73979D8571707E8A929A9D947A5E4C
:103F6800657E87837C7466545C7C9BAAA08A7E7A73
:103F78006E67728990827E81858E908C928C766E27
:103F8800798686786C675E5A6B839FAF997F737763
:103F98007B808F92827168697C91959A97867974F3
:103FA8008392877062504D667A96ACA897807B7C26
:103FB800767B7F7773747581909899948F837479E1
:103FC800847F746454505F7F9DB3B69D7662646845
:103FD8007E919185736F758AA29C928675696B7DB7
:103FE8008887796C5F627A8D9CA49074676D7B86F4
:103FF8008D8C867E7774839294857E7E797A85907F
:104008009381654D49617B9AB1AE907068738893CE
:104018008C847669646789A1A3998D837F7A77797F
:104028006E5A4B517392A3B0ACA0876F686E7476CA
:10403800716E787B8396A9B3A8886F625C65707986
:1040480079645A6D8FB5BFB09673544B546D868D95
:104058009190929A9D9A947D6658596C7E817C7253
:104068006E788AA2B2AC8D694C47577190A0A5A30F
:10407800958C837E7D797674707177808883786D6E
:1040880072838D938D816E61667792A4A69B8776E5
:104098006F758187847A7074838B8C7F6F665D6699
:1040A8007792A39B8C796F75828E938F806F6C75D6
:1040B800889494958B7D76767F826B493A5279A065
:1040C800BEC1AE9175646E7E807C766A656A82AA8E
:1040D800BBB49B7C6A68645F5C55545D7CA5C6CEA6
:1040E800B68D715F5864737C7C71748998AAAEA48C
:1040F800917156525B6A736663788FACBDB9A67EC0
:104108005B505669787D8D91878995A4A0876E5AF2
:104118005766797F81786A758AA6B4A2846A585EE0
:104128006C809A978A7F7E84898C8C837566677485
:10413800868E836F5E6A7D94A19D8670636E869479
:10414800958F887A6E708290938B8176737A81804E
:1041580076635A697B93A2A18F7E716E778A918F5D
:104168008379757B8992978C7C6E6D777A736B5B9C
:104178005E748FA9B2A5876C5F6677899092877AFB
:104188007683949C9487766B6A6C726A5D576D89A6
:10419800AABDB69D775F5865788686817B77849CB3
:1041A800A9AA97836B61676663594F5F85A8C1BFEA
:1041B800A78565565D6F80857D7477879EB2B2A1AD
:1041C80082645A5F6D706755597999B9C4B68E6023
:1041D800494E66828C85827D859AAEBAA6805F4DEF
:1041E800576873756F616A86ADCAC39B68463B4C56
:1041F8006A8C9F978A7E87A4B2A88C6D595862757D
:104208007F766159769EBFBCA57B4F3C466D93A5D2
:104218009E89828996A8A38A6A56576F888E816775
:104228004F5D82A8C3B48B5537446992AEA8948277
:104238007A869CA99976575062829C98845E3D52F2
:1042480081B5CBB07C48344673A4BEAF8C737089FB
:10425800A4AC95705650698CA2977143355B8FC298
:10426800D1AF753E38578AB0AF94726A7C9BB1B2B1
:104278008F6550577993957B5E3C3E74AED3CA9A4E
:10428800613D486E92A99475677196BBC3A472503C
:104298004F618292907153435289B8CFBE93624660
:1042A800506D86938B757586A3B7AF946B4C4E662D
:1042B8008699917A5F4D4D71A4C5C5A97A524A5D18
:1042C80076878F857F8693A4A89679605863728BCA
:1042D800958D78604C507CA6C2C09D6C504E6B8703
:1042E80095937A757D8F9CA7987A61586A82989C75
:1042F80089705A4248769FC2C5A28161576471830A
:10430800887D7D8997A19C8C75676670829591835D
:10431800745F554E6A8EB7C7B1885B4A566A8392F6
:104328008E8B86909C9E8E74616670849191877D39
:104338006D635C5E7D8CA7AB9A7C6258697C8B90C0
:104348008D8F8C8F8A83776E6C7A8494968E8B830C
:104358006B54404E7099BAB9A87B58526C83988FA9
:10436800847E7F898C877C7775859AA59A836B5D17
:104378004F4B3D598CB1CBC19F7757526A7A8A828D
:104388007F7E879494908D7E7C888B908071636407
:104398006463545D84A7C7C4A5744E485E73888956
:1043A800808A96A0A18D7867677A89938A7C7073D2
:1043B800756C61516990BCD1B28450405075979F1B
:1043C800887B778196968B76697182939C8E826FB3
:1043D8006A5E5B4F618AB2D3BB94644B4A677D8D3A
:1043E80085797F8FA19C887167738B98A28B786C75
:1043F800696665595A81AACEBA9660414665849520
:104408009484818A99988871676882949D91857B44
:1044180078756F57416692C6C5A3694243618C9F00
:10442800A48D7E828C8F816A5F6A8CA8AFA09076FB
:10443800695D584E466E97C7CCA8724B48668693FE
:104448009781797B818989827A83969E9581706428
:10445800616668606788A8C4BC97613F45648697B1
:104468009183868B9396917D6A6D7D919089796B06
:104478006B6968607695B2BFA8784A39517C9AA270
:1044880090858A8F8F88796A657A919E9180716EFE
:1044980076755E55759BBFB6916448516E8D9C9438
:1044A8007A7C898F8F7A716B7B96A29788776C6BF1
:1044B8006B5C4D6F98C5C59C69474E6D838F8F7A2D
:1044C8007F8793948376778A9D9E8977696B6869DD
:1044D8005A5480A2C8C096603F456F898C897A86F5
:1044E800909897917B7D828A8C84786A69626853F8
:1044F80068A2C4CB9F633C3B5B8B9E998B7C8D9F52
:104508009B8772637A8C938C7B736D6A696C5B8012
:10451800ACC7B8763B2E558CB1A390818091988317
:10452800686070919E957E70727F7A6C58598AAED9
:10453800BB9967444E75A0B0957D76889C9474624B
:104548005F778D97919584786E5C524982ACC4A947
:10455800754A4D7393A18E8682959E8A6C64687C99
:10456800858B869092856E4D414C9AC9C4915D4C5D
:104578006786918C737D8EA3A6866967727B797432
:104588007E9398937657445E9AC0B07F5F54768C3A
:1045980090857A828F8F7F7880908E796B68798406
:1045A8008A867E7460657E97999282807F78757915
:1045B800828687848583868A8A867A7172737D82E9
:1045C800838073646679939B94887F7A6F6A738B10
:1045D8009A91817E8386868989857A6F6D737A7EC2
:1045E8008583756561708BA19F8F7C747177818AD3
:1045F8008E8C847E82878E8F87796A626F7D8C8DA0
:10460800806B5F67768794958D867A7A7C82817ACB
:10461800818A8E8F918B877A726D6B6E7D86888486
:1046280072717A7F817E7B7F838C8C817C7E78829D
:104638008D92938987827C736D66758188888A8557
:104648007F797B7C7376727E8A958A807B7F7E8B6E
:1046580094908A7B7770757674767E848A8C8A8645
:10466800817068636980899797948B7971777D8069
:104678008483827B76767F7F81837F8786827A7642
:104688007474767D8F92918C81817871777C828425
:104698007F767A81888684857E757A82838B838506
:1046A8008485817D7F82847D7C76747B7D7C7D762C
:1046B8007C7A8C8C8A806A717987858D92907D7ED0
:1046C80081797873757F8084818489818180827300
:1046D80077747E8989888381868885877B797A76CD
:1046E800767572777C8E958B7F78717871727A7A0D
:1046F800818A9A9B988A7B6D727E8285847D7A7482
:1047080077807F888C87877A71716F737E8E94919A
:10471800898A828482776B70747E92918B776F73AB
:104728007B848B867F7D7A7975757B899497908455
:104738007B757476787A7C7D828E8A88817C7B7B97
:104748007D7A7D78767A7C807E838D8A8783786F80
:104758006C6F787F878A8684868A8D928A897E6E36
:104768006D6C7F8A8C8C8684818481827A686C6E79
:104778007A8388918D8D8176747D83868479726E33
:1047880071838987827C8081867E77706E777B8D46
:104798009A99998F84756C68758994968C887A6FC4
:1047A8007171757F7F7D81847C79747C8688938D17
:1047B800868174686C72737A879898928672686B2F
:1047C8006C74888C8B9293928D857E7A7F807B78AF
:1047D8007A75757F818181828B918D7D6861656E27
:1047E8007C8B939697938B7D6D666B74838A888A8E
:1047F800847F7E82837D82807E7E7B7771767A80DD
:104808008B8F8D867F77737371767A868A8B8A868B
:104818007C787C7E8282827E8182818383817B7A9E
:1048280076787F858887827C7D7E81858485817B7B
:104838007A7D8687848687857F73707376787371AF
:1048480077828A928C827873787C7F8180848D933A
:104858008F898A8A8D887F6C636A7282897C727379
:104868007A888880766C6B717C868783898C909235
:1048780086878B898A8178787E8085837F776F7138
:10488800787F7B78747A7D7F7C777F85867E7C7A5B
:10489800818A93948F898083888B85827F756D72D6
:1048A8007A80817E7C7A7A787271777672767E8663
:1048B80089898B898A8B898B8F8F858283807D7D7F
:1048C800797D827F787276777875736D6A70798171
:1048D80085827E848686868D92918F888484878659
:1048E800838283838384837A6F686D717578736F2D
:1048F8006E6D6E7A8590939692867F777885919380
:10490800969D9E94897B7271706F7374706D6D70D3
:10491800737272787F87807E807C7B81878C969D7E
:10492800A4A5A29785776F70717372757B7E858653
:104938007E70605B616B7682807A7C7F8490A0A5B4
:10494800A49B8F877A787D8286838588898A847CF0
:1049580071665D5F67696F73757A7B828A8E9090E6
:104968008C8884828B91969492898083898A8178B5
:1049780069656E797C7B7063646F736F737D888FF4
:1049880094928D91938F8D89888584878889848076
:104998007D8181807B71675F5656667073798995D2
:1049A800979791898685807B7D85919A9F978D8938
:1049B800857F76757A7870655C5D63737C737583C3
:1049C8008D928F847574829199928C8C9493877D43
:1049D8007E7E7E7D7D817E776C6B685B5E6E747893
:1049E800849294959487858889867F8084868A872F
:1049F800869292897D797775756F695F585E7E8C2E
:104A08008A89908F837A70768487848285929AA027
:104A180099877A76787D7D7C7E84877E6C5E5D75ED
:104A2800867B737078767C7D7D89979C9E968C803A
:104A38007B7F797B7D889294958C867A6C5C5759BC
:104A48006379736D7582888A8E8B8A91908B817B4E
:104A58007A8193928B8C8F949087796E6F6863615B
:104A680066647A8376777C8382898882848E928F43
:104A78008A8E8B908B8483868881797372767F8007
:104A8800786C5F657C7574757F8586888188939856
:104A980092858482868E86827C7D7C848C867E7DCF
:104AA80080766B6560787C6E6C7686868C8C868A60
:104AB8008C8E8B8783757D838783848A8B918D8782
:104AC80088877C6C605560736A6E7C8C89898E8857
:104AD8008786867E787B7A85918F8C8C959793894B
:104AE8007F7B7671655E6167818074757E8383865E
:104AF8007C787D88908B87838595968D84888D8634
:104B08007F7C7C7F7F7B76695A666F6A6F76838746
:104B1800909088888C8C7E7A80828D8E8987898C0B
:104B28008685898A857A7162564F6187877E7B85FB
:104B38008D8E8B79777F8182838D8A868C8C8A8310
:104B480084838A8B837A7173706E6C71867A6970CC
:104B5800828A817C777E8A8F8F888D857C8081810F
:104B68007D869192897D7F888E80695E5D73756B85
:104B7800767E817E878986868689817F7B78869105
:104B88009286848A8D8F8A8A877C6E666968757337
:104B98006C7881827C817D7A82898F8B8684878FED
:104BA8008F83797E8A8E8B8584837F786F6A657020
:104BB800746B6F777B7B83848288929D95887D79DF
:104BC80082847F7D848C90908C8D8177746A655FF8
:104BD8006E76727577797A8E969492908777767AD0
:104BE8008387817C7F8C95948D86837C79726A63B8
:104BF80061747976747C879096887F7C88888181B7
:104C08007C7E7A7B818E969690867E7A777A77728A
:104C180068687A7778777D8389867E848891887CAE
:104C28007877797E848990928E8D85837E7C837D4A
:104C380075666A6F686B76848A918980898B8979B1
:104C4800717174808A929397928A87818181848016
:104C58006F63586A7B75767F898A8E7F777C8282BC
:104C68007B807F858F9692887F797D83888A8683EB
:104C780079726F687C7B6868777F83898388888E80
:104C88008B868D837C7D7B75747C8793918F8C87D5
:104C9800897E6E5C5B716D69788A8B8A87838F9257
:104CA80095897E776B72818B857C7F8895979082BA
:104CB8007B76686561728678727A817F868A90923F
:104CC80088847A7E7F7A818782777A8492968B81AC
:104CD8007F7E78706E6A787C67687D8A8B958A8318
:104CE80082858A86857C767D837D7B858D908A8189
:104CF80084868577685F5E7377767D8580808B880C
:104D08008A878B8A80807D8087877B7B878E928A43
:104D1800837E7C766A6A696F7D796E717F848F93F2
:104D28008683828B8883827E858B8D7E7E8686872E
:104D38007F77787F7D73726C6C7B797175837E88E1
:104D48008F8280828E918F8986888D877372777B18
:104D580084868680827E787C756F736D646E8083AE
:104D68008E93837F8590959289807C7A756F798CF4
:104D7800928F887D7B8384817B62566978757C8B72
:104D8800868B87797985968F867B78818D948E88B6
:104D98007D76768487848881746C6569848B72607B
:104DA8006E7880857E828C9695918E8988888678A3
:104DB8006F75818E8C8581868B806A565174857F4C
:104DC800707B88838480888D9C90877572737D85BD
:104DD800838589938F8C888B8D816953575B6E8F00
:104DE8008579768F97948D887B7D7C6E6E7A8B948F
:104DF80096827C8096938881847F8172645B5C5103
:104E08006988939D959F90887869637F8B87807B5D
:104E18007E898785858B907E7A858D867B6962659C
:104E2800626288959B8D8C857E7471748592837877
:104E38007A83888B8085878D827E7E89878D82762E
:104E4800635C4B678A91968C948684767D748B809C
:104E580073757F85929087817E807F8F9EA1897EE2
:104E68005C504B59588B99A0968E8C878275766AC0
:104E780080757B84918F94807E8596948D848175CE
:104E88006D6F65656A6561939A9F8E8A808369668E
:104E980069829A88858388879585908E866E676DE6
:104EA800828388837B6D6C59619B9A937A848897F7
:104EB800726E6A828C7F858E988F8F71747179710A
:104EC8008188978B867A7065685E629B98968390D6
:104ED8008D8B686D6E878F7E80878C8189757C77D6
:104EE8008B7C7F7A8E93988B745E504E4C96A5A9D6
:104EF80095948A8B6B6465758B8286888D808D7B93
:104F0800817C898486868A88827C706C5D5A5393FA
:104F1800ABA69388817E695D707A8D807F8E978934
:104F2800897F7D7D7C7C828B8E90888E7F695254B0
:104F3800487AA5928D8D9A99835D656A80877A886B
:104F480092888A85848A7A7E808F908F808A8673F9
:104F58005545404394B0A79C9C91876657697481D6
:104F6800787A9BAC9A917B80817D7F899190877BB1
:104F7800816E634D524B6AB1B19A8D8B7D705256DA
:104F8800728C979194A2997F79707C7E8185939198
:104F9800928D807E6A5E4D4F4279B6A78C7F878B53
:104FA8007D6270858F897981968B7E8186959187C0
:104FB8008A8E837A6F737B706154554F89B4A08E43
:104FC800858B846C51698295958391A196868279A7
:104FD800837C79818A847F838C8E785942423E8B88
:104FE800B3A1968F938A6B557285938D82919C8A13
:104FF8007E7F80867D7587988C87807F7B62504D09
:10500800535097B6A2998C87795F557A8A96948D72
:10501800959A7D6F757C878281939A8886787B7252
:105028005D504E5455A1C1A895888682685A7B86E2
:105038008B847F93A083768393988174797E6D7334
:105048007D938B6B534F53549DB7A59E92857C5986
:1050580050778D9C958C9DA485716F707475808F29
:10506800958582848B7C5E4B444D5CAEC4AA9A893C
:105078007F7459517A919F978F97957570787C7E38
:105088007C84939A877B6C706E6760615D68A5B25B
:105098009C877E81846E657D8F998A869390756DD5
:1050A80076868A8081898E827C767F766554554A99
:1050B80069ACB7AE958A867B5A5E78939A847E8F60
:1050C8008F7B787D8C847A7E8988847D7E816F54FD
:1050D80047535895C2B3A48A81826E4A60758B9CE7
:1050E80091949C8A6F727484817F8D97887D707883
:1050F8008575635752529DB8ADA38B7F765A4C7015
:105108008595978A8F9A8474747D7F777B91A19611
:1051180084727973645457516AB2B4AA9F85796DC1
:105128005357768CA19B8E9890706E778E9180786D
:10513800808387837982705A4E595490C0A79F9074
:105148007E76624D6E8EA29F8C8E9F846F6B698176
:105158008375879789857685927B524B4250A7B194
:105168009D9D8E8C865E57778DA4957E8B8D756DF3
:1051780067758C7F88A6A6997E6974715643494CD9
:105188008CC4ABA399918C6A3F53768E9C8F8E9773
:105198008671777E97917B83959287726E78674F39
:1051A80053516CC1BFA190756F6B4A5C88999D89FA
:1051B8007F94977E786F879C8E84938E87766F7D99
:1051C80076594E424FAEC6A19283817E4D3F648F81
:1051D800A79A8B9D9D7C706D8099967F898B8B7922
:1051E8006E7C795E4C444EAFCCA9937C74734C3F73
:1051F800709BB1A4848F967C787379948E768E9206
:105208009383727877564A4757B4BF9B8879777EDD
:10521800564D809BA9997B88967D6C6A7C9E9B8560
:1052280095918A766B787D54423C63C1C09E8A8290
:10523800847A4247779AA59082939B7A666F899E73
:1052480087788F9D94766C767753454083C6AE9564
:1052580083828467445E8AA09980849A8C756B7473
:10526800949C8086949A8F6E696F5945405CB3CE42
:10527800B2927F776D4946789EA38874839991800E
:105288007580958A81878A8D7F6A6B5D505369AA7C
:10529800CCB59272636C5A4E6D8B9A9B8A8D9E8B9D
:1052A8007E727086887D8B8F7F7C7A8075584A6085
:1052B800A2C2AA806F76735D536488A2A092949468
:1052C800796E6D81928B798191948C737261564E4F
:1052D80066AAC5AA80686E7D644F668A9F9B868889
:1052E80096907B657694978B858082807063575BF8
:1052F8006291C6B49375707C6C48517292A59A8C71
:10530800968C77757A928E887F8683776259656ED8
:105318006C74B4C6AD8768646D594E668EADA48E44
:105328008B85787C798491908187807872665F5EBE
:105338005D70B4C6AA8D6C6C78605769829AA38E2A
:10534800897F7375778A9593838C84816D595964A5
:10535800616FB8C8B48E6F6D71584B658EB0A88BED
:10536800837F756A6E7D8E908A938A82695C5A60A3
:105378005886CCC5A97D666B65424D7EA7BFA688B9
:10538800817F7A6C687587838E8E868478615F5F8B
:1053980065A8C0A9916D636E57527492ABAE8B81AC
:1053A800858079716E7D878589857F766C61646279
:1053B80094BDAD9479636F6B526685A3B39C7C787A
:1053C80076777F7C808F928C7D736C645A57569267
:1053D800CAB69B807175654A5C85A6AF9F86817E3B
:1053E800746F6D829698908774695950535798C610
:1053F800AE9F8F7B7A5F436188A4A59086908C7E50
:1054080070677E8F8582847B7259524C60ADC4AAC6
:10541800968170715E547A98AAA6877C8583837A70
:105428006C8391847F766F685A5A4B77CAC6A48B6F
:105438006F66644A5787ACC3AA86878272696075AB
:105448009A9B887B767A6553514F93C7B099857339
:105458006E5B4C6B92A6A5908A9D917A685C778F5B
:105468008988837F7C63625361A4B5A38C7168705B
:105478005A5F809BAE9A8080897E797383999282E5
:105488007C79796B55595590C7B294816F705B39A7
:105498005986AAB9A1919382676363849B98999569
:1054A80087755A45494A98CDBEA6836B6C533E5FB3
:1054B800839EA799969D7C6A646D888F8B959A8D3B
:1054C8007C60574F5499BEAD9979747457496B9461
:1054D800A79D7C7F8A8671657191998F888389835E
:1054E8006A5A4751A7CDB292756C7357517199A5F5
:1054F8009A7F878F8373616C838D888D858B7E6C93
:105508005F56488EC9B69C8574735F4D6989A7A498
:105518009189937E766B6C757E838685847D7269AE
:105528005C4863BDCCAA89726F745A5C7CA0AE9744
:105538008588887E756D74838C89807A7D6E635CBE
:1055480057568BC6C3AA8D6F6759495E89AFB29DFE
:105558008B87756D68708294928A878376635654B8
:105568005960A3CFC2A37C676D4F3F628FB4AF92DF
:10557800898F7C705C64849491958B887F6F62516D
:105588004B4A95CAC9AC87776D4C49627EA7A491EE
:105598008B89817C70757F8F8E887E878577684B35
:1055A800524E88BEB8AD93797763515E6D89978EF8
:1055B800888F8D8A8181879085837E797C6E6B5EEA
:1055C800625682BDB39E827175685467839A9782CA
:1055D8007E8A898781848A948F7F7B78796F6E5BD6
:1055E8005A5777B7BAA7896C676653698CA0AB9886
:1055F800817F7978777B8A93938684807E6E615BDE
:105608005C5565ACC9B08B7370735850729AB1A26F
:105618008683878078727A838A7F7E8385847B6A93
:105628005F534A8BBAB09C887D7B66546276929AA7
:105638008F90979290806F6C777975798A95907F23
:10564800665A4A75A49E958C8383765A657F8E9197
:105658007F7F969A8E827E82867669758287867D1E
:10566800736C4A69AAAB95796D808663657F999F4B
:105678007D728A92857A788A9792827D77756B6631
:10568800615D587FBFBF9E796F71644F6089A8B212
:10569800997E827D74737680909D9C997F715E520D
:1056A8004C52518AD0CBAE806E6B5D42537EA6B809
:1056B8009A8D8E7E756D7280928B879395856858CA
:1056C8005250478BC4C1A17B767C654F6483A197F8
:1056D8007D84918F867E858C877A7A7B8079766CBB
:1056E800665A65A0AE987B727C81646A8B9C9680B2
:1056F80070777F7F8B9598998C7C7973696B695DDE
:10570800616AA4C4A2816A687462597997A49A8864
:1057180089826E70828F9291898984736D656261C6
:105728005B88B8AC937F6F6F60566B899F97878E45
:1057380094816F747F898D898585807870645C54C5
:1057480088BBAA87746E766F5F78979F9376768802
:105758008078798496A28D81807268605D5B5F94A1
:10576800C1B4977F6D6A6455698F9C9687838B7ED9
:105778007A808389938A8A887A665355526AACC339
:10578800AC998670615B5773888D83859295918CEF
:105798008C7D77787F8585816A605F5E8DB1A79102
:1057A800857E705A5C758A96807C8B8C857E858E0A
:1057B8008C857E7D7774716C696996B4A0867B77D9
:1057C8006E5B5D7E90998E818C8E7B7376787C8201
:1057D8007D898E826C6669699BB09C847D7D7863C7
:1057E8005E7D8F8F88808D9380757E7D7479757EC0
:1057F8007C766765617CB2BCA9887D73625D7186C1
:1058080096938A868A86807A7A7B7E7E8381746282
:1058180051555983A6B3AAA29780655D6E7C838A89
:105828008F8F9188848C8774747D7F7166585D5CD6
:10583800749A9F9E959088776A6C7988888B9191E5
:105848008C8D877D797D81878472594E4F669199B9
:105858009FA09B906D5868747C8186919B9D9C91BC
:10586800857E78766B7177726B606B909897948A67
:1058780081706F726B6D7C8C98908993948C858005
:10588800867D6F675E5C56709AA1A5A6948774673B
:10589800656063738A949096A09888797C7B6F7111
:1058A8006E6967647A909797919C977B75756A6B18
:1058B8006D748486909E9690857E786B6B69655F23
:1058C80061809692939B9F897A827B6D686C858CA8
:1058D800869AA29788777A7C6F655E60626E808B05
:1058E80095979287797E8C847C7A7C7C73829B9D49
:1058F800968A878778706F6E615264838A83818BFA
:1059080094897A787A7F8280828B94938D87828536
:10591800818087817B6D6068727375798182777CFD
:10592800878A8A877D7F8B9394908988847F7B730D
:1059380079837F78716E706E767C797B82838389B8
:105948008D8C857978849498908E897D78746C6E26
:105958006C70818476777B7980817E8A938E87824A
:10596800837D77767B8A96918E89857C6F5D576873
:105978007074868D8A8C83828F928B8682828083D4
:1059880087817474818C93897B7976665D5C637496
:105998007D818E969D9A8C888D8886837C807F7A7F
:1059A8007F87827F80817F7A6E6867656067748091
:1059B800909DA19B938C8984847D7E8B897E7F803A
:1059C8008381797A7B79716B6D6B60646C7B8D9563
:1059D800989EA19A8A7C7374848B8A8D928D7E702E
:1059E800767C797268636E7269737D82888C8F9316
:1059F80091898584837D838B8A898C908D847E7838
:105A0800736B5E545B656D839297938C888B8785E7
:105A18007D777F7F838F938B8E8D8886847D7A7345
:105A28006D6359595F647D94989F9B9184807E7FB4
:105A38007A7D8792938D8483848288857E756F6B47
:105A4800686063616879878C9597928D84807F867A
:105A5800888C9191857D82888583837F7671605A51
:105A6800686B6D6F7E818C8F908A888B817C808833
:105A78009196928C8489837C7D80787A736657614D
:105A880078728088888A888C917D7774737A8492FA
:105A9800A29B958E8381767874757C836E5F547033
:105AA8007A7B8A949A8681878775746B7283919FB3
:105AB800958E96837A7A777E7D7E7E6E6D5D65841F
:105AC800707E8F958E8689867071787486878F929E
